{
  "contractName": "SimpleGetSet",
  "abi": [
    {
      "constant": true,
      "inputs": [],
      "name": "owner",
      "outputs": [
        {
          "name": "",
          "type": "address"
        }
      ],
      "payable": false,
      "stateMutability": "view",
      "type": "function"
    },
    {
      "constant": true,
      "inputs": [],
      "name": "lastName",
      "outputs": [
        {
          "name": "",
          "type": "bytes32"
        }
      ],
      "payable": false,
      "stateMutability": "view",
      "type": "function"
    },
    {
      "inputs": [],
      "payable": false,
      "stateMutability": "nonpayable",
      "type": "constructor"
    },
    {
      "constant": false,
      "inputs": [
        {
          "name": "_lastName",
          "type": "bytes32"
        }
      ],
      "name": "setLastName",
      "outputs": [],
      "payable": false,
      "stateMutability": "nonpayable",
      "type": "function"
    },
    {
      "constant": true,
      "inputs": [],
      "name": "getLastName",
      "outputs": [
        {
          "name": "",
          "type": "bytes32"
        }
      ],
      "payable": false,
      "stateMutability": "view",
      "type": "function"
    },
    {
      "constant": true,
      "inputs": [],
      "name": "getYear",
      "outputs": [
        {
          "name": "",
          "type": "uint256"
        }
      ],
      "payable": false,
      "stateMutability": "pure",
      "type": "function"
    }
  ],
  "bytecode": "0x608060405234801561001057600080fd5b50336000806101000a81548173ffffffffffffffffffffffffffffffffffffffff021916908373ffffffffffffffffffffffffffffffffffffffff1602179055506101fa806100606000396000f3fe60806040526004361061006d576000357c0100000000000000000000000000000000000000000000000000000000900463ffffffff16806326ba16ea146100725780636b109282146100ad5780638da5cb5b146100d85780639ab03dcb1461012f578063fd08921b1461015a575b600080fd5b34801561007e57600080fd5b506100ab6004803603602081101561009557600080fd5b8101908080359060200190929190505050610185565b005b3480156100b957600080fd5b506100c261018f565b6040518082815260200191505060405180910390f35b3480156100e457600080fd5b506100ed610199565b604051808273ffffffffffffffffffffffffffffffffffffffff1673ffffffffffffffffffffffffffffffffffffffff16815260200191505060405180910390f35b34801561013b57600080fd5b506101446101be565b6040518082815260200191505060405180910390f35b34801561016657600080fd5b5061016f6101c4565b6040518082815260200191505060405180910390f35b8060018190555050565b6000600154905090565b6000809054906101000a900473ffffffffffffffffffffffffffffffffffffffff1681565b60015481565b60006107e390509056fea165627a7a7230582056631161f0133b074a907a15e575533e14c7d964eceac0abc217f02db36c10da0029",
  "source": "pragma solidity ^0.5.0;\n\ncontract SimpleGetSet {\n  address public owner;\n  bytes32 public lastName;\n\n  modifier isOwner() {\n    if (msg.sender == owner) _;\n  }\n\n  constructor() public {\n    owner = msg.sender;\n  }\n\n  function setLastName(bytes32 _lastName) public {\n     lastName = _lastName;\n  }\n\n  function getLastName() public view returns (bytes32 ){\n     return lastName;\n  }\n  \n  function getYear() public pure returns (uint ){\n     return 2019;\n  }\n}\n",
  "sourcePath": "/Users/madelacruzs/_PROJECTS/Blockchain ETH/B9Lab/Project-1-Splitter/contracts/SimpleGetSet.sol",
  "compiler": {
    "name": "solc",
    "version": "0.5.0+commit.1d4f565a.Emscripten.clang"
  },
  "schemaVersion": "3.0.3",
  "updatedAt": "2019-04-24T09:45:25.684Z",
  "devdoc": {
    "methods": {}
  },
  "userdoc": {
    "methods": {}
  }
}